{
  "contractName": "ItemManager",
  "abi": [
    {
      "anonymous": false,
      "inputs": [
        {
          "indexed": false,
          "internalType": "uint256",
          "name": "_itemIndex",
          "type": "uint256"
        },
        {
          "indexed": false,
          "internalType": "uint256",
          "name": "_step",
          "type": "uint256"
        },
        {
          "indexed": false,
          "internalType": "address",
          "name": "_itemAddress",
          "type": "address"
        }
      ],
      "name": "SupplyChainStep",
      "type": "event"
    },
    {
      "inputs": [],
      "name": "_owner",
      "outputs": [
        {
          "internalType": "address",
          "name": "",
          "type": "address"
        }
      ],
      "stateMutability": "view",
      "type": "function"
    },
    {
      "inputs": [],
      "name": "isOwner",
      "outputs": [
        {
          "internalType": "bool",
          "name": "",
          "type": "bool"
        }
      ],
      "stateMutability": "view",
      "type": "function"
    },
    {
      "inputs": [
        {
          "internalType": "uint256",
          "name": "",
          "type": "uint256"
        }
      ],
      "name": "items",
      "outputs": [
        {
          "internalType": "contract Item",
          "name": "_item",
          "type": "address"
        },
        {
          "internalType": "string",
          "name": "_identifier",
          "type": "string"
        },
        {
          "internalType": "enum ItemManager.SupplyChainState",
          "name": "_state",
          "type": "uint8"
        }
      ],
      "stateMutability": "view",
      "type": "function"
    },
    {
      "inputs": [
        {
          "internalType": "string",
          "name": "_identifier",
          "type": "string"
        },
        {
          "internalType": "uint256",
          "name": "_itemPrice",
          "type": "uint256"
        }
      ],
      "name": "createItem",
      "outputs": [],
      "stateMutability": "nonpayable",
      "type": "function"
    },
    {
      "inputs": [
        {
          "internalType": "uint256",
          "name": "_itemIndex",
          "type": "uint256"
        }
      ],
      "name": "triggerPayement",
      "outputs": [],
      "stateMutability": "payable",
      "type": "function"
    },
    {
      "inputs": [
        {
          "internalType": "uint256",
          "name": "_itemIndex",
          "type": "uint256"
        }
      ],
      "name": "triggerDelivery",
      "outputs": [],
      "stateMutability": "nonpayable",
      "type": "function"
    }
  ],
  "bytecode": "0x608060405234801561001057600080fd5b50336000806101000a81548173ffffffffffffffffffffffffffffffffffffffff021916908373ffffffffffffffffffffffffffffffffffffffff160217905550611033806100606000396000f3fe6080604052600436106100555760003560e01c80638c5517421461005a5780638f32d59b1461012c578063b2bdfa7b14610159578063bfb231d21461019a578063cd31831e1461027d578063cfde2eb7146102b8575b600080fd5b34801561006657600080fd5b5061012a6004803603604081101561007d57600080fd5b810190808035906020019064010000000081111561009a57600080fd5b8201836020820111156100ac57600080fd5b803590602001918460018302840111640100000000831117156100ce57600080fd5b91908080601f016020809104026020016040519081016040528093929190818152602001838380828437600081840152601f19601f820116905080830192505050505050509192919290803590602001909291905050506102e6565b005b34801561013857600080fd5b50610141610524565b60405180821515815260200191505060405180910390f35b34801561016557600080fd5b5061016e61057b565b604051808273ffffffffffffffffffffffffffffffffffffffff16815260200191505060405180910390f35b3480156101a657600080fd5b506101d3600480360360208110156101bd57600080fd5b810190808035906020019092919050505061059f565b604051808473ffffffffffffffffffffffffffffffffffffffff1681526020018060200183600281111561020357fe5b8152602001828103825284818151815260200191508051906020019080838360005b83811015610240578082015181840152602081019050610225565b50505050905090810190601f16801561026d5780820380516001836020036101000a031916815260200191505b5094505050505060405180910390f35b34801561028957600080fd5b506102b6600480360360208110156102a057600080fd5b810190808035906020019092919050505061068e565b005b6102e4600480360360208110156102ce57600080fd5b81019080803590602001909291905050506108b5565b005b6102ee610524565b610360576040517f08c379a00000000000000000000000000000000000000000000000000000000081526004018080602001828103825260208152602001807f4f776e61626c653a2063616c6c6572206973206e6f7420746865206f776e657281525060200191505060405180910390fd5b6000308260025460405161037390610b5a565b808473ffffffffffffffffffffffffffffffffffffffff1681526020018381526020018281526020019350505050604051809103906000f0801580156103bd573d6000803e3d6000fd5b5090508060016000600254815260200190815260200160002060000160006101000a81548173ffffffffffffffffffffffffffffffffffffffff021916908373ffffffffffffffffffffffffffffffffffffffff160217905550826001600060025481526020019081526020016000206001019080519060200190610443929190610b67565b50600060016000600254815260200190815260200160002060020160006101000a81548160ff0219169083600281111561047957fe5b02179055507fa4035636e99f06b7651a604c1019fa4e8779fe68ef27eeb74dff2de348f6199b60025460016000600254815260200190815260200160002060020160009054906101000a900460ff1660028111156104d357fe5b83604051808481526020018381526020018273ffffffffffffffffffffffffffffffffffffffff168152602001935050505060405180910390a1600260008154809291906001019190505550505050565b60008060009054906101000a900473ffffffffffffffffffffffffffffffffffffffff1673ffffffffffffffffffffffffffffffffffffffff163373ffffffffffffffffffffffffffffffffffffffff1614905090565b60008054906101000a900473ffffffffffffffffffffffffffffffffffffffff1681565b60016020528060005260406000206000915090508060000160009054906101000a900473ffffffffffffffffffffffffffffffffffffffff1690806001018054600181600116156101000203166002900480601f0160208091040260200160405190810160405280929190818152602001828054600181600116156101000203166002900480156106715780601f1061064657610100808354040283529160200191610671565b820191906000526020600020905b81548152906001019060200180831161065457829003601f168201915b5050505050908060020160009054906101000a900460ff16905083565b610696610524565b610708576040517f08c379a00000000000000000000000000000000000000000000000000000000081526004018080602001828103825260208152602001807f4f776e61626c653a2063616c6c6572206973206e6f7420746865206f776e657281525060200191505060405180910390fd5b6001600281111561071557fe5b6001600083815260200190815260200160002060020160009054906101000a900460ff16600281111561074457fe5b146107b7576040517f08c379a000000000000000000000000000000000000000000000000000000000815260040180806020018281038252601c8152602001807f4974656d206973206675727468657220696e2074686520636861696e0000000081525060200191505060405180910390fd5b60026001600083815260200190815260200160002060020160006101000a81548160ff021916908360028111156107ea57fe5b02179055507fa4035636e99f06b7651a604c1019fa4e8779fe68ef27eeb74dff2de348f6199b8160016000600254815260200190815260200160002060020160009054906101000a900460ff16600281111561084257fe5b6001600085815260200190815260200160002060000160009054906101000a900473ffffffffffffffffffffffffffffffffffffffff16604051808481526020018381526020018273ffffffffffffffffffffffffffffffffffffffff168152602001935050505060405180910390a150565b60006001600083815260200190815260200160002060000160009054906101000a900473ffffffffffffffffffffffffffffffffffffffff169050348173ffffffffffffffffffffffffffffffffffffffff16633c8da5886040518163ffffffff1660e01b815260040160206040518083038186803b15801561093757600080fd5b505afa15801561094b573d6000803e3d6000fd5b505050506040513d602081101561096157600080fd5b8101908080519060200190929190505050146109e5576040517f08c379a000000000000000000000000000000000000000000000000000000000815260040180806020018281038252601b8152602001807f4f6e6c792066756c6c20706179656d656e74206163636570746564000000000081525060200191505060405180910390fd5b600060028111156109f257fe5b6001600084815260200190815260200160002060020160009054906101000a900460ff166002811115610a2157fe5b14610a94576040517f08c379a000000000000000000000000000000000000000000000000000000000815260040180806020018281038252601e8152602001807f546865206974656d2068617320616c7265616479206265656e2070616964000081525060200191505060405180910390fd5b600180600084815260200190815260200160002060020160006101000a81548160ff02191690836002811115610ac657fe5b02179055507fa4035636e99f06b7651a604c1019fa4e8779fe68ef27eeb74dff2de348f6199b826001600085815260200190815260200160002060020160009054906101000a900460ff166002811115610b1c57fe5b83604051808481526020018381526020018273ffffffffffffffffffffffffffffffffffffffff168152602001935050505060405180910390a15050565b6103f980610c0583390190565b828054600181600116156101000203166002900490600052602060002090601f016020900481019282601f10610ba857805160ff1916838001178555610bd6565b82800160010185558215610bd6579182015b82811115610bd5578251825591602001919060010190610bba565b5b509050610be39190610be7565b5090565b5b80821115610c00576000816000905550600101610be8565b509056fe608060405234801561001057600080fd5b506040516103f93803806103f98339818101604052606081101561003357600080fd5b81019080805190602001909291908051906020019092919080519060200190929190505050816000819055508060018190555082600260006101000a81548173ffffffffffffffffffffffffffffffffffffffff021916908373ffffffffffffffffffffffffffffffffffffffff160217905550505050610340806100b96000396000f3fe60806040526004361061002d5760003560e01c80632986c0e51461027b5780633c8da588146102a65761026c565b3661026c5760005434146100a9576040517f08c379a000000000000000000000000000000000000000000000000000000000815260040180806020018281038252601b8152602001807f6f6e6c792066756c6c20706179656d656e74206163636570746564000000000081525060200191505060405180910390fd5b6000600260009054906101000a900473ffffffffffffffffffffffffffffffffffffffff1673ffffffffffffffffffffffffffffffffffffffff1634600154604051602401808281526020019150506040516020818303038152906040527fcfde2eb7000000000000000000000000000000000000000000000000000000007bffffffffffffffffffffffffffffffffffffffffffffffffffffffff19166020820180517bffffffffffffffffffffffffffffffffffffffffffffffffffffffff83818316178352505050506040518082805190602001908083835b602083106101a85780518252602082019150602081019050602083039250610185565b6001836020036101000a03801982511681845116808217855250505050505090500191505060006040518083038185875af1925050503d806000811461020a576040519150601f19603f3d011682016040523d82523d6000602084013e61020f565b606091505b5050905080610269576040517f08c379a000000000000000000000000000000000000000000000000000000000815260040180806020018281038252602d8152602001806102de602d913960400191505060405180910390fd5b50005b34801561027857600080fd5b50005b34801561028757600080fd5b506102906102d1565b6040518082815260200191505060405180910390f35b3480156102b257600080fd5b506102bb6102d7565b6040518082815260200191505060405180910390f35b60015481565b6000548156fe546865207472616e73616374696f6e207761736e2774207375636365737366756c2c2063616e63656c6c696e67a264697066735822122006b3203cf40e14cdfb256007a337514766c4f5233a59c4324c10876c7b7a943a64736f6c634300060c0033a2646970667358221220dcbb27030c518d6c2524544d7dc88ca7ad8b80630987f1400f29c88597b716c164736f6c634300060c0033",
  "immutableReferences": {},
  "source": "// SPDX-License-Identifier: MIT\npragma solidity >=0.4.21 <0.7.0;\n\nimport \"./Item.sol\";\nimport \"./Ownable.sol\";\ncontract ItemManager is Ownable {\n\n    enum SupplyChainState{Created, Paid, Delivered}\n\n    struct S_Item {\n        Item _item;\n        string _identifier;\n        ItemManager.SupplyChainState _state;\n    }\n\n    mapping(uint => S_Item) public items;\n    uint itemIndex;\n\n    event SupplyChainStep(uint _itemIndex, uint _step, address _itemAddress);\n\n    function createItem(string memory _identifier, uint _itemPrice) public onlyOwner {\n        Item item = new Item(this, _itemPrice, itemIndex);\n        items[itemIndex]._item = item;\n        items[itemIndex]._identifier = _identifier;\n        items[itemIndex]._state = SupplyChainState.Created;\n        emit SupplyChainStep(itemIndex, uint(items[itemIndex]._state), address(item));\n        itemIndex++;\n    }\n\n    function triggerPayement(uint _itemIndex) public payable {\n        Item item = items[_itemIndex]._item;\n        require(item.priceInWei() == msg.value, \"Only full payement accepted\");\n        require(items[_itemIndex]._state == SupplyChainState.Created, \"The item has already been paid\");\n        items[_itemIndex]._state = SupplyChainState.Paid;\n        emit SupplyChainStep(_itemIndex, uint(items[_itemIndex]._state), address(item));\n    } \n\n    function triggerDelivery(uint _itemIndex) public onlyOwner {\n        require(items[_itemIndex]._state == SupplyChainState.Paid, \"Item is further in the chain\");\n        items[_itemIndex]._state = SupplyChainState.Delivered;\n        emit SupplyChainStep(_itemIndex, uint(items[itemIndex]._state), address(items[_itemIndex]._item));\n    }\n}",
  "sourcePath": "/Users/meona/Developer/Solidity/SupplyChain/contracts/ItemManager.sol",
  "compiler": {
    "name": "solc",
    "version": "0.6.12+commit.27d51765.Emscripten.clang"
  },
  "schemaVersion": "3.4.3",
  "updatedAt": "2022-03-23T15:15:31.625Z",
  "devdoc": {
    "kind": "dev",
    "methods": {
      "isOwner()": {
        "details": "Returns true if the caller is the current owner. "
      }
    },
    "version": 1
  },
  "userdoc": {
    "kind": "user",
    "methods": {},
    "version": 1
  }
}